{
  "_format": "hh-sol-artifact-1",
  "contractName": "PrivateLendingPool",
  "sourceName": "contracts/PrivateLendingPool.sol",
  "abi": [
    {
      "inputs": [
        {
          "internalType": "address",
          "name": "_asset",
          "type": "address"
        }
      ],
      "stateMutability": "nonpayable",
      "type": "constructor"
    },
    {
      "anonymous": false,
      "inputs": [
        {
          "indexed": true,
          "internalType": "address",
          "name": "oldAsset",
          "type": "address"
        },
        {
          "indexed": true,
          "internalType": "address",
          "name": "newAsset",
          "type": "address"
        }
      ],
      "name": "AssetUpdated",
      "type": "event"
    },
    {
      "anonymous": false,
      "inputs": [
        {
          "indexed": true,
          "internalType": "address",
          "name": "user",
          "type": "address"
        }
      ],
      "name": "Borrowed",
      "type": "event"
    },
    {
      "anonymous": false,
      "inputs": [
        {
          "indexed": true,
          "internalType": "address",
          "name": "user",
          "type": "address"
        }
      ],
      "name": "Deposited",
      "type": "event"
    },
    {
      "anonymous": false,
      "inputs": [
        {
          "indexed": true,
          "internalType": "address",
          "name": "liquidator",
          "type": "address"
        },
        {
          "indexed": true,
          "internalType": "address",
          "name": "target",
          "type": "address"
        }
      ],
      "name": "Liquidated",
      "type": "event"
    },
    {
      "anonymous": false,
      "inputs": [
        {
          "indexed": true,
          "internalType": "address",
          "name": "user",
          "type": "address"
        }
      ],
      "name": "Repaid",
      "type": "event"
    },
    {
      "inputs": [],
      "name": "asset",
      "outputs": [
        {
          "internalType": "contract ConfidentialUSD",
          "name": "",
          "type": "address"
        }
      ],
      "stateMutability": "view",
      "type": "function"
    },
    {
      "inputs": [
        {
          "internalType": "uint256",
          "name": "req",
          "type": "uint256"
        }
      ],
      "name": "borrow",
      "outputs": [],
      "stateMutability": "nonpayable",
      "type": "function"
    },
    {
      "inputs": [
        {
          "internalType": "address",
          "name": "",
          "type": "address"
        }
      ],
      "name": "debts",
      "outputs": [
        {
          "internalType": "uint256",
          "name": "",
          "type": "uint256"
        }
      ],
      "stateMutability": "view",
      "type": "function"
    },
    {
      "inputs": [
        {
          "internalType": "uint256",
          "name": "amount",
          "type": "uint256"
        }
      ],
      "name": "deposit",
      "outputs": [],
      "stateMutability": "nonpayable",
      "type": "function"
    },
    {
      "inputs": [
        {
          "internalType": "address",
          "name": "",
          "type": "address"
        }
      ],
      "name": "deposits",
      "outputs": [
        {
          "internalType": "uint256",
          "name": "",
          "type": "uint256"
        }
      ],
      "stateMutability": "view",
      "type": "function"
    },
    {
      "inputs": [
        {
          "internalType": "address",
          "name": "user",
          "type": "address"
        }
      ],
      "name": "getHealthFactor",
      "outputs": [
        {
          "internalType": "bool",
          "name": "",
          "type": "bool"
        }
      ],
      "stateMutability": "view",
      "type": "function"
    },
    {
      "inputs": [
        {
          "internalType": "address",
          "name": "target",
          "type": "address"
        },
        {
          "internalType": "uint256",
          "name": "encRepay",
          "type": "uint256"
        },
        {
          "internalType": "bytes",
          "name": "proof",
          "type": "bytes"
        }
      ],
      "name": "liquidateSimple",
      "outputs": [],
      "stateMutability": "nonpayable",
      "type": "function"
    },
    {
      "inputs": [],
      "name": "owner",
      "outputs": [
        {
          "internalType": "address",
          "name": "",
          "type": "address"
        }
      ],
      "stateMutability": "view",
      "type": "function"
    },
    {
      "inputs": [
        {
          "internalType": "uint256",
          "name": "amount",
          "type": "uint256"
        }
      ],
      "name": "repay",
      "outputs": [],
      "stateMutability": "nonpayable",
      "type": "function"
    },
    {
      "inputs": [
        {
          "internalType": "address",
          "name": "newAsset",
          "type": "address"
        }
      ],
      "name": "updateAsset",
      "outputs": [],
      "stateMutability": "nonpayable",
      "type": "function"
    },
    {
      "inputs": [],
      "name": "viewMyPosition",
      "outputs": [
        {
          "internalType": "uint256",
          "name": "",
          "type": "uint256"
        },
        {
          "internalType": "uint256",
          "name": "",
          "type": "uint256"
        }
      ],
      "stateMutability": "view",
      "type": "function"
    }
  ],
  "bytecode": "0x60a06040523480156200001157600080fd5b50604051620015183803806200151883398181016040528101906200003791906200011c565b806000806101000a81548173ffffffffffffffffffffffffffffffffffffffff021916908373ffffffffffffffffffffffffffffffffffffffff1602179055503373ffffffffffffffffffffffffffffffffffffffff1660808173ffffffffffffffffffffffffffffffffffffffff1681525050506200014e565b600080fd5b600073ffffffffffffffffffffffffffffffffffffffff82169050919050565b6000620000e482620000b7565b9050919050565b620000f681620000d7565b81146200010257600080fd5b50565b6000815190506200011681620000eb565b92915050565b600060208284031215620001355762000134620000b2565b5b6000620001458482850162000105565b91505092915050565b6080516113a762000171600039600081816106ba0152610b1901526113a76000f3fe608060405234801561001057600080fd5b50600436106100a95760003560e01c806395f4576b1161007157806395f4576b14610152578063b6b55f2514610171578063c5ebeaec1461018d578063f141b52b146101a9578063fc7e286d146101c5578063fe6bcd7c146101f5576100a9565b80632cb96fd2146100ae5780632ecd4e7d146100ca578063371fd8e6146100fa57806338d52e0f146101165780638da5cb5b14610134575b600080fd5b6100c860048036038101906100c39190610eb1565b610225565b005b6100e460048036038101906100df9190610f25565b6104be565b6040516100f19190610f61565b60405180910390f35b610114600480360381019061010f9190610f7c565b6104d6565b005b61011e610694565b60405161012b9190611008565b60405180910390f35b61013c6106b8565b6040516101499190611032565b60405180910390f35b61015a6106dc565b60405161016892919061104d565b60405180910390f35b61018b60048036038101906101869190610f7c565b610767565b005b6101a760048036038101906101a29190610f7c565b610892565b005b6101c360048036038101906101be9190610f25565b610b17565b005b6101df60048036038101906101da9190610f25565b610cd8565b6040516101ec9190610f61565b60405180910390f35b61020f600480360381019061020a9190610f25565b610cf0565b60405161021c9190611091565b60405180910390f35b600061271067ffffffffffffffff16611b5867ffffffffffffffff16600160008873ffffffffffffffffffffffffffffffffffffffff1673ffffffffffffffffffffffffffffffffffffffff1681526020019081526020016000205461028b91906110db565b610295919061114c565b9050600081600260008873ffffffffffffffffffffffffffffffffffffffff1673ffffffffffffffffffffffffffffffffffffffff16815260200190815260200160002054119050801561045c576000600260008873ffffffffffffffffffffffffffffffffffffffff1673ffffffffffffffffffffffffffffffffffffffff1681526020019081526020016000205486111561037157600260008873ffffffffffffffffffffffffffffffffffffffff1673ffffffffffffffffffffffffffffffffffffffff16815260200190815260200160002054610373565b855b905060008054906101000a900473ffffffffffffffffffffffffffffffffffffffff1673ffffffffffffffffffffffffffffffffffffffff16637372c2b53330846040518463ffffffff1660e01b81526004016103d29392919061117d565b600060405180830381600087803b1580156103ec57600080fd5b505af1158015610400573d6000803e3d6000fd5b5050505080600260008973ffffffffffffffffffffffffffffffffffffffff1673ffffffffffffffffffffffffffffffffffffffff168152602001908152602001600020600082825461045391906111b4565b92505081905550505b8573ffffffffffffffffffffffffffffffffffffffff163373ffffffffffffffffffffffffffffffffffffffff167facd74f5a0eb0d086de0eebe2d1e70d5742838c88cb2cf492fc201d39e056f7e060405160405180910390a3505050505050565b60026020528060005260406000206000915090505481565b6000600260003373ffffffffffffffffffffffffffffffffffffffff1673ffffffffffffffffffffffffffffffffffffffff1681526020019081526020016000205482111561056457600260003373ffffffffffffffffffffffffffffffffffffffff1673ffffffffffffffffffffffffffffffffffffffff16815260200190815260200160002054610566565b815b905060008054906101000a900473ffffffffffffffffffffffffffffffffffffffff1673ffffffffffffffffffffffffffffffffffffffff16637372c2b53330846040518463ffffffff1660e01b81526004016105c59392919061117d565b600060405180830381600087803b1580156105df57600080fd5b505af11580156105f3573d6000803e3d6000fd5b5050505080600260003373ffffffffffffffffffffffffffffffffffffffff1673ffffffffffffffffffffffffffffffffffffffff168152602001908152602001600020600082825461064691906111b4565b925050819055503373ffffffffffffffffffffffffffffffffffffffff167f05d1afa4e43dbce3b369dc63aa54be0236311f52799da52a837aeb34453824eb60405160405180910390a25050565b60008054906101000a900473ffffffffffffffffffffffffffffffffffffffff1681565b7f000000000000000000000000000000000000000000000000000000000000000081565b600080600160003373ffffffffffffffffffffffffffffffffffffffff1673ffffffffffffffffffffffffffffffffffffffff16815260200190815260200160002054600260003373ffffffffffffffffffffffffffffffffffffffff1673ffffffffffffffffffffffffffffffffffffffff16815260200190815260200160002054915091509091565b60008054906101000a900473ffffffffffffffffffffffffffffffffffffffff1673ffffffffffffffffffffffffffffffffffffffff16637372c2b53330846040518463ffffffff1660e01b81526004016107c49392919061117d565b600060405180830381600087803b1580156107de57600080fd5b505af11580156107f2573d6000803e3d6000fd5b5050505080600160003373ffffffffffffffffffffffffffffffffffffffff1673ffffffffffffffffffffffffffffffffffffffff168152602001908152602001600020600082825461084591906111e8565b925050819055503373ffffffffffffffffffffffffffffffffffffffff167f20a3fe276908af20d1fa2f8f48225ac6a1997eb2d38695c580adeb4124a1a59b60405160405180910390a250565b600061271067ffffffffffffffff16611b5867ffffffffffffffff16600160003373ffffffffffffffffffffffffffffffffffffffff1673ffffffffffffffffffffffffffffffffffffffff168152602001908152602001600020546108f891906110db565b610902919061114c565b905080600260003373ffffffffffffffffffffffffffffffffffffffff1673ffffffffffffffffffffffffffffffffffffffff168152602001908152602001600020541115610986576040517f08c379a000000000000000000000000000000000000000000000000000000000815260040161097d90611279565b60405180910390fd5b6000600260003373ffffffffffffffffffffffffffffffffffffffff1673ffffffffffffffffffffffffffffffffffffffff16815260200190815260200160002054826109d391906111b4565b90506000818411156109e557816109e7565b835b905080600260003373ffffffffffffffffffffffffffffffffffffffff1673ffffffffffffffffffffffffffffffffffffffff1681526020019081526020016000206000828254610a3891906111e8565b9250508190555060008054906101000a900473ffffffffffffffffffffffffffffffffffffffff1673ffffffffffffffffffffffffffffffffffffffff166326e8eda23033846040518463ffffffff1660e01b8152600401610a9c9392919061117d565b600060405180830381600087803b158015610ab657600080fd5b505af1158015610aca573d6000803e3d6000fd5b505050503373ffffffffffffffffffffffffffffffffffffffff167f7c2296a8bd586b4860d6bfdd0917f50dffd764d8bfdb183f865296fff404d70960405160405180910390a250505050565b7f000000000000000000000000000000000000000000000000000000000000000073ffffffffffffffffffffffffffffffffffffffff163373ffffffffffffffffffffffffffffffffffffffff1614610ba5576040517f08c379a0000000000000000000000000000000000000000000000000000000008152600401610b9c906112e5565b60405180910390fd5b600073ffffffffffffffffffffffffffffffffffffffff168173ffffffffffffffffffffffffffffffffffffffff1603610c14576040517f08c379a0000000000000000000000000000000000000000000000000000000008152600401610c0b90611351565b60405180910390fd5b60008060009054906101000a900473ffffffffffffffffffffffffffffffffffffffff169050816000806101000a81548173ffffffffffffffffffffffffffffffffffffffff021916908373ffffffffffffffffffffffffffffffffffffffff1602179055508173ffffffffffffffffffffffffffffffffffffffff168173ffffffffffffffffffffffffffffffffffffffff167f215169fe0f546947d8a4b9e988e166cee7fffaca3db0787886fba8275539b6cb60405160405180910390a35050565b60016020528060005260406000206000915090505481565b60008061271067ffffffffffffffff16611b5867ffffffffffffffff16600160008673ffffffffffffffffffffffffffffffffffffffff1673ffffffffffffffffffffffffffffffffffffffff16815260200190815260200160002054610d5791906110db565b610d61919061114c565b905080600260008573ffffffffffffffffffffffffffffffffffffffff1673ffffffffffffffffffffffffffffffffffffffff168152602001908152602001600020541115915050919050565b600080fd5b600080fd5b600073ffffffffffffffffffffffffffffffffffffffff82169050919050565b6000610de382610db8565b9050919050565b610df381610dd8565b8114610dfe57600080fd5b50565b600081359050610e1081610dea565b92915050565b6000819050919050565b610e2981610e16565b8114610e3457600080fd5b50565b600081359050610e4681610e20565b92915050565b600080fd5b600080fd5b600080fd5b60008083601f840112610e7157610e70610e4c565b5b8235905067ffffffffffffffff811115610e8e57610e8d610e51565b5b602083019150836001820283011115610eaa57610ea9610e56565b5b9250929050565b60008060008060608587031215610ecb57610eca610dae565b5b6000610ed987828801610e01565b9450506020610eea87828801610e37565b935050604085013567ffffffffffffffff811115610f0b57610f0a610db3565b5b610f1787828801610e5b565b925092505092959194509250565b600060208284031215610f3b57610f3a610dae565b5b6000610f4984828501610e01565b91505092915050565b610f5b81610e16565b82525050565b6000602082019050610f766000830184610f52565b92915050565b600060208284031215610f9257610f91610dae565b5b6000610fa084828501610e37565b91505092915050565b6000819050919050565b6000610fce610fc9610fc484610db8565b610fa9565b610db8565b9050919050565b6000610fe082610fb3565b9050919050565b6000610ff282610fd5565b9050919050565b61100281610fe7565b82525050565b600060208201905061101d6000830184610ff9565b92915050565b61102c81610dd8565b82525050565b60006020820190506110476000830184611023565b92915050565b60006040820190506110626000830185610f52565b61106f6020830184610f52565b9392505050565b60008115159050919050565b61108b81611076565b82525050565b60006020820190506110a66000830184611082565b92915050565b7f4e487b7100000000000000000000000000000000000000000000000000000000600052601160045260246000fd5b60006110e682610e16565b91506110f183610e16565b92508282026110ff81610e16565b91508282048414831517611116576111156110ac565b5b5092915050565b7f4e487b7100000000000000000000000000000000000000000000000000000000600052601260045260246000fd5b600061115782610e16565b915061116283610e16565b9250826111725761117161111d565b5b828204905092915050565b60006060820190506111926000830186611023565b61119f6020830185611023565b6111ac6040830184610f52565b949350505050565b60006111bf82610e16565b91506111ca83610e16565b92508282039050818111156111e2576111e16110ac565b5b92915050565b60006111f382610e16565b91506111fe83610e16565b9250828201905080821115611216576112156110ac565b5b92915050565b600082825260208201905092915050565b7f496e73756666696369656e7420626f72726f77696e6720636170616369747900600082015250565b6000611263601f8361121c565b915061126e8261122d565b602082019050919050565b6000602082019050818103600083015261129281611256565b9050919050565b7f4e6f74206f776e65720000000000000000000000000000000000000000000000600082015250565b60006112cf60098361121c565b91506112da82611299565b602082019050919050565b600060208201905081810360008301526112fe816112c2565b9050919050565b7f496e76616c696420617373657420616464726573730000000000000000000000600082015250565b600061133b60158361121c565b915061134682611305565b602082019050919050565b6000602082019050818103600083015261136a8161132e565b905091905056fea264697066735822122073c1555cee9858e1624b481258d86fbc27dc630d804b0681650e5cb11201b92664736f6c63430008180033",
  "linkReferences": {},
  "deployedLinkReferences": {}
}